{
  "transactions": [
    {
      "hash": "0xccf21a72dfa2eaedcb7d834534743bcd5e895418c6f5fdd4c35d13015de054b9",
      "transactionType": "CALL",
      "contractName": null,
      "contractAddress": "0x779877a7b0d9e8603169ddbd7836e478b4624789",
      "function": "transferAndCall(address,uint256,bytes)",
      "arguments": [
        "0x9DdfaCa8183c41ad55329BdeeD9F6A8d53168B1B",
        "3000000000000000000",
        "0x13e27103ad23c3572e883dc27d3da1cb8a7151cd3641a096a0f02f005af4edd6"
      ],
      "transaction": {
        "from": "0xa041129e84bfc1d2b29bce9fa309fdeb708fb477",
        "to": "0x779877a7b0d9e8603169ddbd7836e478b4624789",
        "gas": "0x1603d",
        "value": "0x0",
        "input": "0x4000aea00000000000000000000000009ddfaca8183c41ad55329bdeed9f6a8d53168b1b00000000000000000000000000000000000000000000000029a2241af62c00000000000000000000000000000000000000000000000000000000000000000060000000000000000000000000000000000000000000000000000000000000002013e27103ad23c3572e883dc27d3da1cb8a7151cd3641a096a0f02f005af4edd6",
        "nonce": "0x4a",
        "chainId": "0xaa36a7"
      },
      "additionalContracts": [],
      "isFixedGasLimit": false
    }
  ],
  "receipts": [
    {
      "status": "0x1",
      "cumulativeGasUsed": "0x81d01d",
      "logs": [
        {
          "address": "0x779877a7b0d9e8603169ddbd7836e478b4624789",
          "topics": [
            "0xddf252ad1be2c89b69c2b068fc378daa952ba7f163c4a11628f55a4df523b3ef",
            "0x000000000000000000000000a041129e84bfc1d2b29bce9fa309fdeb708fb477",
            "0x0000000000000000000000009ddfaca8183c41ad55329bdeed9f6a8d53168b1b"
          ],
          "data": "0x00000000000000000000000000000000000000000000000029a2241af62c0000",
          "blockHash": "0x442fabe360d2af846c171c89887ff0c9ffd435ac07a3246db178561e12a8dd67",
          "blockNumber": "0x614f0a",
          "transactionHash": "0xccf21a72dfa2eaedcb7d834534743bcd5e895418c6f5fdd4c35d13015de054b9",
          "transactionIndex": "0x37",
          "logIndex": "0x70",
          "removed": false
        },
        {
          "address": "0x779877a7b0d9e8603169ddbd7836e478b4624789",
          "topics": [
            "0xe19260aff97b920c7df27010903aeb9c8d2be5d310a2c67824cf3f15396e4c16",
            "0x000000000000000000000000a041129e84bfc1d2b29bce9fa309fdeb708fb477",
            "0x0000000000000000000000009ddfaca8183c41ad55329bdeed9f6a8d53168b1b"
          ],
          "data": "0x00000000000000000000000000000000000000000000000029a2241af62c00000000000000000000000000000000000000000000000000000000000000000040000000000000000000000000000000000000000000000000000000000000002013e27103ad23c3572e883dc27d3da1cb8a7151cd3641a096a0f02f005af4edd6",
          "blockHash": "0x442fabe360d2af846c171c89887ff0c9ffd435ac07a3246db178561e12a8dd67",
          "blockNumber": "0x614f0a",
          "transactionHash": "0xccf21a72dfa2eaedcb7d834534743bcd5e895418c6f5fdd4c35d13015de054b9",
          "transactionIndex": "0x37",
          "logIndex": "0x71",
          "removed": false
        },
        {
          "address": "0x9ddfaca8183c41ad55329bdeed9f6a8d53168b1b",
          "topics": [
            "0x1ced9348ff549fceab2ac57cd3a9de38edaaab274b725ee82c23e8fc8c4eec7a",
            "0x13e27103ad23c3572e883dc27d3da1cb8a7151cd3641a096a0f02f005af4edd6"
          ],
          "data": "0x00000000000000000000000000000000000000000000000294c227f36d6ce696000000000000000000000000000000000000000000000002be644c0e6398e696",
          "blockHash": "0x442fabe360d2af846c171c89887ff0c9ffd435ac07a3246db178561e12a8dd67",
          "blockNumber": "0x614f0a",
          "transactionHash": "0xccf21a72dfa2eaedcb7d834534743bcd5e895418c6f5fdd4c35d13015de054b9",
          "transactionIndex": "0x37",
          "logIndex": "0x72",
          "removed": false
        }
      ],
      "logsBloom": "0x00000004000000000000000000000000100020000020000000000000020000000010000000000000000000000000000000000000000000000000000000000000000000000000000000000008000000000000000000000000000020000020000008000000000000000000000000000000000000000000000000000010000040000000000000000100000000010000800000000020000002000000000000000000000000000000000000000000010000000000000000000000000004000000000000000002000000000000000000000000000000000000000100000000000000000010000000000000800000000000000000000000000000000004000000000000",
      "type": "0x2",
      "transactionHash": "0xccf21a72dfa2eaedcb7d834534743bcd5e895418c6f5fdd4c35d13015de054b9",
      "transactionIndex": "0x37",
      "blockHash": "0x442fabe360d2af846c171c89887ff0c9ffd435ac07a3246db178561e12a8dd67",
      "blockNumber": "0x614f0a",
      "gasUsed": "0xf0d9",
      "effectiveGasPrice": "0x7e75506a",
      "from": "0xa041129e84bfc1d2b29bce9fa309fdeb708fb477",
      "to": "0x779877a7b0d9e8603169ddbd7836e478b4624789",
      "contractAddress": null
    }
  ],
  "libraries": [],
  "pending": [],
  "returns": {},
  "timestamp": 1721968370,
  "chain": 11155111,
  "commit": "43c6a99"
}